{
  "_format": "hh-sol-artifact-1",
  "contractName": "Tokes",
  "sourceName": "contracts/Tokes.sol",
  "abi": [
    {
      "inputs": [],
      "stateMutability": "nonpayable",
      "type": "constructor"
    },
    {
      "anonymous": false,
      "inputs": [
        {
          "indexed": true,
          "internalType": "address",
          "name": "owner",
          "type": "address"
        },
        {
          "indexed": true,
          "internalType": "address",
          "name": "approved",
          "type": "address"
        },
        {
          "indexed": true,
          "internalType": "uint256",
          "name": "tokenId",
          "type": "uint256"
        }
      ],
      "name": "Approval",
      "type": "event"
    },
    {
      "anonymous": false,
      "inputs": [
        {
          "indexed": true,
          "internalType": "address",
          "name": "owner",
          "type": "address"
        },
        {
          "indexed": true,
          "internalType": "address",
          "name": "operator",
          "type": "address"
        },
        {
          "indexed": false,
          "internalType": "bool",
          "name": "approved",
          "type": "bool"
        }
      ],
      "name": "ApprovalForAll",
      "type": "event"
    },
    {
      "anonymous": false,
      "inputs": [
        {
          "indexed": true,
          "internalType": "address",
          "name": "from",
          "type": "address"
        },
        {
          "indexed": true,
          "internalType": "address",
          "name": "to",
          "type": "address"
        },
        {
          "indexed": true,
          "internalType": "uint256",
          "name": "tokenId",
          "type": "uint256"
        },
        {
          "indexed": false,
          "internalType": "address",
          "name": "token",
          "type": "address"
        },
        {
          "indexed": false,
          "internalType": "uint256",
          "name": "amount",
          "type": "uint256"
        },
        {
          "indexed": false,
          "internalType": "uint256",
          "name": "expiration",
          "type": "uint256"
        }
      ],
      "name": "MintERC20Toke",
      "type": "event"
    },
    {
      "anonymous": false,
      "inputs": [
        {
          "indexed": true,
          "internalType": "address",
          "name": "from",
          "type": "address"
        },
        {
          "indexed": true,
          "internalType": "address",
          "name": "to",
          "type": "address"
        },
        {
          "indexed": true,
          "internalType": "uint256",
          "name": "tokenId",
          "type": "uint256"
        },
        {
          "indexed": false,
          "internalType": "uint256",
          "name": "amount",
          "type": "uint256"
        },
        {
          "indexed": false,
          "internalType": "uint256",
          "name": "expiration",
          "type": "uint256"
        }
      ],
      "name": "MintEtherToke",
      "type": "event"
    },
    {
      "anonymous": false,
      "inputs": [
        {
          "indexed": true,
          "internalType": "address",
          "name": "to",
          "type": "address"
        },
        {
          "indexed": true,
          "internalType": "uint256",
          "name": "tokenId",
          "type": "uint256"
        }
      ],
      "name": "RedeemToke",
      "type": "event"
    },
    {
      "anonymous": false,
      "inputs": [
        {
          "indexed": true,
          "internalType": "address",
          "name": "from",
          "type": "address"
        },
        {
          "indexed": true,
          "internalType": "address",
          "name": "to",
          "type": "address"
        },
        {
          "indexed": true,
          "internalType": "uint256",
          "name": "tokenId",
          "type": "uint256"
        }
      ],
      "name": "Transfer",
      "type": "event"
    },
    {
      "inputs": [
        {
          "internalType": "address",
          "name": "to",
          "type": "address"
        },
        {
          "internalType": "uint256",
          "name": "tokenId",
          "type": "uint256"
        }
      ],
      "name": "approve",
      "outputs": [],
      "stateMutability": "nonpayable",
      "type": "function"
    },
    {
      "inputs": [
        {
          "internalType": "address",
          "name": "owner",
          "type": "address"
        }
      ],
      "name": "balanceOf",
      "outputs": [
        {
          "internalType": "uint256",
          "name": "",
          "type": "uint256"
        }
      ],
      "stateMutability": "view",
      "type": "function"
    },
    {
      "inputs": [
        {
          "internalType": "uint256",
          "name": "tokeId",
          "type": "uint256"
        }
      ],
      "name": "breakToke",
      "outputs": [],
      "stateMutability": "nonpayable",
      "type": "function"
    },
    {
      "inputs": [
        {
          "internalType": "uint256",
          "name": "tokenId",
          "type": "uint256"
        }
      ],
      "name": "getApproved",
      "outputs": [
        {
          "internalType": "address",
          "name": "",
          "type": "address"
        }
      ],
      "stateMutability": "view",
      "type": "function"
    },
    {
      "inputs": [
        {
          "internalType": "uint256",
          "name": "tokeId",
          "type": "uint256"
        }
      ],
      "name": "getToke",
      "outputs": [
        {
          "internalType": "address",
          "name": "",
          "type": "address"
        },
        {
          "components": [
            {
              "internalType": "uint256",
              "name": "value",
              "type": "uint256"
            },
            {
              "internalType": "uint256",
              "name": "expiration",
              "type": "uint256"
            },
            {
              "internalType": "address",
              "name": "token",
              "type": "address"
            },
            {
              "internalType": "address",
              "name": "creator",
              "type": "address"
            }
          ],
          "internalType": "struct Tokes.Toke",
          "name": "",
          "type": "tuple"
        },
        {
          "internalType": "uint256",
          "name": "",
          "type": "uint256"
        }
      ],
      "stateMutability": "view",
      "type": "function"
    },
    {
      "inputs": [
        {
          "internalType": "address",
          "name": "owner",
          "type": "address"
        },
        {
          "internalType": "address",
          "name": "operator",
          "type": "address"
        }
      ],
      "name": "isApprovedForAll",
      "outputs": [
        {
          "internalType": "bool",
          "name": "",
          "type": "bool"
        }
      ],
      "stateMutability": "view",
      "type": "function"
    },
    {
      "inputs": [
        {
          "internalType": "address",
          "name": "token",
          "type": "address"
        },
        {
          "internalType": "address",
          "name": "to",
          "type": "address"
        },
        {
          "internalType": "uint256",
          "name": "amount",
          "type": "uint256"
        },
        {
          "internalType": "uint256",
          "name": "expiration",
          "type": "uint256"
        }
      ],
      "name": "mintERC20Toke",
      "outputs": [],
      "stateMutability": "nonpayable",
      "type": "function"
    },
    {
      "inputs": [
        {
          "internalType": "address",
          "name": "to",
          "type": "address"
        },
        {
          "internalType": "uint256",
          "name": "expiration",
          "type": "uint256"
        }
      ],
      "name": "mintEtherToke",
      "outputs": [],
      "stateMutability": "payable",
      "type": "function"
    },
    {
      "inputs": [],
      "name": "name",
      "outputs": [
        {
          "internalType": "string",
          "name": "",
          "type": "string"
        }
      ],
      "stateMutability": "view",
      "type": "function"
    },
    {
      "inputs": [
        {
          "internalType": "uint256",
          "name": "tokeId",
          "type": "uint256"
        }
      ],
      "name": "notExpired",
      "outputs": [
        {
          "internalType": "bool",
          "name": "",
          "type": "bool"
        }
      ],
      "stateMutability": "view",
      "type": "function"
    },
    {
      "inputs": [
        {
          "internalType": "uint256",
          "name": "tokenId",
          "type": "uint256"
        }
      ],
      "name": "ownerOf",
      "outputs": [
        {
          "internalType": "address",
          "name": "",
          "type": "address"
        }
      ],
      "stateMutability": "view",
      "type": "function"
    },
    {
      "inputs": [
        {
          "internalType": "uint256",
          "name": "tokeId",
          "type": "uint256"
        }
      ],
      "name": "redeem",
      "outputs": [],
      "stateMutability": "nonpayable",
      "type": "function"
    },
    {
      "inputs": [
        {
          "internalType": "address",
          "name": "from",
          "type": "address"
        },
        {
          "internalType": "address",
          "name": "to",
          "type": "address"
        },
        {
          "internalType": "uint256",
          "name": "tokenId",
          "type": "uint256"
        }
      ],
      "name": "safeTransferFrom",
      "outputs": [],
      "stateMutability": "nonpayable",
      "type": "function"
    },
    {
      "inputs": [
        {
          "internalType": "address",
          "name": "from",
          "type": "address"
        },
        {
          "internalType": "address",
          "name": "to",
          "type": "address"
        },
        {
          "internalType": "uint256",
          "name": "tokenId",
          "type": "uint256"
        },
        {
          "internalType": "bytes",
          "name": "_data",
          "type": "bytes"
        }
      ],
      "name": "safeTransferFrom",
      "outputs": [],
      "stateMutability": "nonpayable",
      "type": "function"
    },
    {
      "inputs": [
        {
          "internalType": "address",
          "name": "operator",
          "type": "address"
        },
        {
          "internalType": "bool",
          "name": "approved",
          "type": "bool"
        }
      ],
      "name": "setApprovalForAll",
      "outputs": [],
      "stateMutability": "nonpayable",
      "type": "function"
    },
    {
      "inputs": [
        {
          "internalType": "bytes4",
          "name": "interfaceId",
          "type": "bytes4"
        }
      ],
      "name": "supportsInterface",
      "outputs": [
        {
          "internalType": "bool",
          "name": "",
          "type": "bool"
        }
      ],
      "stateMutability": "view",
      "type": "function"
    },
    {
      "inputs": [],
      "name": "symbol",
      "outputs": [
        {
          "internalType": "string",
          "name": "",
          "type": "string"
        }
      ],
      "stateMutability": "view",
      "type": "function"
    },
    {
      "inputs": [
        {
          "internalType": "address",
          "name": "owner",
          "type": "address"
        },
        {
          "internalType": "uint256",
          "name": "id",
          "type": "uint256"
        }
      ],
      "name": "tokeInfoOfOwnerByIndex",
      "outputs": [
        {
          "internalType": "address",
          "name": "",
          "type": "address"
        },
        {
          "components": [
            {
              "internalType": "uint256",
              "name": "value",
              "type": "uint256"
            },
            {
              "internalType": "uint256",
              "name": "expiration",
              "type": "uint256"
            },
            {
              "internalType": "address",
              "name": "token",
              "type": "address"
            },
            {
              "internalType": "address",
              "name": "creator",
              "type": "address"
            }
          ],
          "internalType": "struct Tokes.Toke",
          "name": "",
          "type": "tuple"
        },
        {
          "internalType": "uint256",
          "name": "",
          "type": "uint256"
        }
      ],
      "stateMutability": "view",
      "type": "function"
    },
    {
      "inputs": [
        {
          "internalType": "uint256",
          "name": "index",
          "type": "uint256"
        }
      ],
      "name": "tokenByIndex",
      "outputs": [
        {
          "internalType": "uint256",
          "name": "",
          "type": "uint256"
        }
      ],
      "stateMutability": "view",
      "type": "function"
    },
    {
      "inputs": [
        {
          "internalType": "address",
          "name": "owner",
          "type": "address"
        },
        {
          "internalType": "uint256",
          "name": "index",
          "type": "uint256"
        }
      ],
      "name": "tokenOfOwnerByIndex",
      "outputs": [
        {
          "internalType": "uint256",
          "name": "",
          "type": "uint256"
        }
      ],
      "stateMutability": "view",
      "type": "function"
    },
    {
      "inputs": [
        {
          "internalType": "uint256",
          "name": "tokenId",
          "type": "uint256"
        }
      ],
      "name": "tokenURI",
      "outputs": [
        {
          "internalType": "string",
          "name": "",
          "type": "string"
        }
      ],
      "stateMutability": "view",
      "type": "function"
    },
    {
      "inputs": [],
      "name": "totalSupply",
      "outputs": [
        {
          "internalType": "uint256",
          "name": "",
          "type": "uint256"
        }
      ],
      "stateMutability": "view",
      "type": "function"
    },
    {
      "inputs": [
        {
          "internalType": "address",
          "name": "from",
          "type": "address"
        },
        {
          "internalType": "address",
          "name": "to",
          "type": "address"
        },
        {
          "internalType": "uint256",
          "name": "tokenId",
          "type": "uint256"
        }
      ],
      "name": "transferFrom",
      "outputs": [],
      "stateMutability": "nonpayable",
      "type": "function"
    }
  ],
  "bytecode": "0x60806040523480156200001157600080fd5b506040518060400160405280600581526020017f546f6b65730000000000000000000000000000000000000000000000000000008152506040518060400160405280600581526020017f546f6b6573000000000000000000000000000000000000000000000000000000815250816000908051906020019062000096929190620000b8565b508060019080519060200190620000af929190620000b8565b505050620001cd565b828054620000c69062000197565b90600052602060002090601f016020900481019282620000ea576000855562000136565b82601f106200010557805160ff191683800117855562000136565b8280016001018555821562000136579182015b828111156200013557825182559160200191906001019062000118565b5b50905062000145919062000149565b5090565b5b80821115620001645760008160009055506001016200014a565b5090565b7f4e487b7100000000000000000000000000000000000000000000000000000000600052602260045260246000fd5b60006002820490506001821680620001b057607f821691505b60208210811415620001c757620001c662000168565b5b50919050565b61460680620001dd6000396000f3fe6080604052600436106101405760003560e01c80635a6ffacc116100b6578063a34fc9011161006f578063a34fc901146104a6578063b88d4fde146104e5578063c87b56dd1461050e578063db006a751461054b578063e985e9c514610574578063ecc1bca2146105b157610140565b80635a6ffacc146103705780636352211e1461039957806370a08231146103d657806395d89b41146104135780639cb5b0331461043e578063a22cb4651461047d57610140565b806318160ddd1161010857806318160ddd1461025057806323b872dd1461027b5780632f745c59146102a457806342842e0e146102e15780634b784d581461030a5780634f6ccce71461033357610140565b806301ffc9a71461014557806306fdde0314610182578063081812fc146101ad578063095ea7b3146101ea57806309ad1ef514610213575b600080fd5b34801561015157600080fd5b5061016c60048036038101906101679190612cc5565b6105cd565b6040516101799190612d0d565b60405180910390f35b34801561018e57600080fd5b50610197610647565b6040516101a49190612dc1565b60405180910390f35b3480156101b957600080fd5b506101d460048036038101906101cf9190612e19565b6106d9565b6040516101e19190612e87565b60405180910390f35b3480156101f657600080fd5b50610211600480360381019061020c9190612ece565b61075e565b005b34801561021f57600080fd5b5061023a60048036038101906102359190612e19565b610876565b6040516102479190612d0d565b60405180910390f35b34801561025c57600080fd5b506102656108ba565b6040516102729190612f1d565b60405180910390f35b34801561028757600080fd5b506102a2600480360381019061029d9190612f38565b6108c7565b005b3480156102b057600080fd5b506102cb60048036038101906102c69190612ece565b610927565b6040516102d89190612f1d565b60405180910390f35b3480156102ed57600080fd5b5061030860048036038101906103039190612f38565b6109cc565b005b34801561031657600080fd5b50610331600480360381019061032c9190612f8b565b6109ec565b005b34801561033f57600080fd5b5061035a60048036038101906103559190612e19565b610aa4565b6040516103679190612f1d565b60405180910390f35b34801561037c57600080fd5b5061039760048036038101906103929190612e19565b610b15565b005b3480156103a557600080fd5b506103c060048036038101906103bb9190612e19565b610c10565b6040516103cd9190612e87565b60405180910390f35b3480156103e257600080fd5b506103fd60048036038101906103f89190612ff2565b610cc2565b60405161040a9190612f1d565b60405180910390f35b34801561041f57600080fd5b50610428610d7a565b6040516104359190612dc1565b60405180910390f35b34801561044a57600080fd5b5061046560048036038101906104609190612e19565b610e0c565b60405161047493929190613092565b60405180910390f35b34801561048957600080fd5b506104a4600480360381019061049f91906130f5565b610f58565b005b3480156104b257600080fd5b506104cd60048036038101906104c89190612ece565b610f6e565b6040516104dc93929190613092565b60405180910390f35b3480156104f157600080fd5b5061050c6004803603810190610507919061326a565b610f99565b005b34801561051a57600080fd5b5061053560048036038101906105309190612e19565b610ffb565b6040516105429190612dc1565b60405180910390f35b34801561055757600080fd5b50610572600480360381019061056d9190612e19565b6110a2565b005b34801561058057600080fd5b5061059b600480360381019061059691906132ed565b61113f565b6040516105a89190612d0d565b60405180910390f35b6105cb60048036038101906105c69190612ece565b6111d3565b005b60007f780e9d63000000000000000000000000000000000000000000000000000000007bffffffffffffffffffffffffffffffffffffffffffffffffffffffff1916827bffffffffffffffffffffffffffffffffffffffffffffffffffffffff19161480610640575061063f8261129e565b5b9050919050565b6060600080546106569061335c565b80601f01602080910402602001604051908101604052809291908181526020018280546106829061335c565b80156106cf5780601f106106a4576101008083540402835291602001916106cf565b820191906000526020600020905b8154815290600101906020018083116106b257829003601f168201915b5050505050905090565b60006106e482611380565b610723576040517f08c379a000000000000000000000000000000000000000000000000000000000815260040161071a90613400565b60405180910390fd5b6004600083815260200190815260200160002060009054906101000a900473ffffffffffffffffffffffffffffffffffffffff169050919050565b600061076982610c10565b90508073ffffffffffffffffffffffffffffffffffffffff168373ffffffffffffffffffffffffffffffffffffffff1614156107da576040517f08c379a00000000000000000000000000000000000000000000000000000000081526004016107d190613492565b60405180910390fd5b8073ffffffffffffffffffffffffffffffffffffffff166107f96113ec565b73ffffffffffffffffffffffffffffffffffffffff1614806108285750610827816108226113ec565b61113f565b5b610867576040517f08c379a000000000000000000000000000000000000000000000000000000000815260040161085e90613524565b60405180910390fd5b61087183836113f4565b505050565b600080600b600084815260200190815260200160002060010154905060008114806108a057504281115b156108af5760019150506108b5565b60009150505b919050565b6000600880549050905090565b6108d86108d26113ec565b826114ad565b610917576040517f08c379a000000000000000000000000000000000000000000000000000000000815260040161090e906135b6565b60405180910390fd5b61092283838361158b565b505050565b600061093283610cc2565b8210610973576040517f08c379a000000000000000000000000000000000000000000000000000000000815260040161096a90613648565b60405180910390fd5b600660008473ffffffffffffffffffffffffffffffffffffffff1673ffffffffffffffffffffffffffffffffffffffff168152602001908152602001600020600083815260200190815260200160002054905092915050565b6109e783838360405180602001604052806000815250610f99565b505050565b610a193330848773ffffffffffffffffffffffffffffffffffffffff166117f2909392919063ffffffff16565b6000610a278484848861187b565b9050808473ffffffffffffffffffffffffffffffffffffffff163373ffffffffffffffffffffffffffffffffffffffff167fe148cee056656b9c23540565427f558734f8d5e208ee8cf5c6924a9883dce502888787604051610a8b93929190613668565b60405180910390a4610a9d600a6119a5565b5050505050565b6000610aae6108ba565b8210610aef576040517f08c379a0000000000000000000000000000000000000000000000000000000008152600401610ae690613711565b60405180910390fd5b60088281548110610b0357610b02613731565b5b90600052602060002001549050919050565b80600b600082815260200190815260200160002060030160009054906101000a900473ffffffffffffffffffffffffffffffffffffffff1673ffffffffffffffffffffffffffffffffffffffff163373ffffffffffffffffffffffffffffffffffffffff1614610bba576040517f08c379a0000000000000000000000000000000000000000000000000000000008152600401610bb1906137d2565b60405180910390fd5b610bc382610876565b15610c03576040517f08c379a0000000000000000000000000000000000000000000000000000000008152600401610bfa9061383e565b60405180910390fd5b610c0c826119bb565b5050565b6000806002600084815260200190815260200160002060009054906101000a900473ffffffffffffffffffffffffffffffffffffffff169050600073ffffffffffffffffffffffffffffffffffffffff168173ffffffffffffffffffffffffffffffffffffffff161415610cb9576040517f08c379a0000000000000000000000000000000000000000000000000000000008152600401610cb0906138d0565b60405180910390fd5b80915050919050565b60008073ffffffffffffffffffffffffffffffffffffffff168273ffffffffffffffffffffffffffffffffffffffff161415610d33576040517f08c379a0000000000000000000000000000000000000000000000000000000008152600401610d2a90613962565b60405180910390fd5b600360008373ffffffffffffffffffffffffffffffffffffffff1673ffffffffffffffffffffffffffffffffffffffff168152602001908152602001600020549050919050565b606060018054610d899061335c565b80601f0160208091040260200160405190810160405280929190818152602001828054610db59061335c565b8015610e025780601f10610dd757610100808354040283529160200191610e02565b820191906000526020600020905b815481529060010190602001808311610de557829003601f168201915b5050505050905090565b6000610e16612c05565b6000610e2184611380565b610e60576040517f08c379a0000000000000000000000000000000000000000000000000000000008152600401610e57906139ce565b60405180910390fd5b610e6984610c10565b600b6000868152602001908152602001600020858160405180608001604052908160008201548152602001600182015481526020016002820160009054906101000a900473ffffffffffffffffffffffffffffffffffffffff1673ffffffffffffffffffffffffffffffffffffffff1673ffffffffffffffffffffffffffffffffffffffff1681526020016003820160009054906101000a900473ffffffffffffffffffffffffffffffffffffffff1673ffffffffffffffffffffffffffffffffffffffff1673ffffffffffffffffffffffffffffffffffffffff168152505091509250925092509193909250565b610f6a610f636113ec565b8383611c2d565b5050565b6000610f78612c05565b6000610f8c610f878686610927565b610e0c565b9250925092509250925092565b610faa610fa46113ec565b836114ad565b610fe9576040517f08c379a0000000000000000000000000000000000000000000000000000000008152600401610fe0906135b6565b60405180910390fd5b610ff584848484611d9a565b50505050565b606061100682611380565b611045576040517f08c379a000000000000000000000000000000000000000000000000000000000815260040161103c90613a60565b60405180910390fd5b600061104f611df6565b9050600081511161106f576040518060200160405280600081525061109a565b8061107984611e0d565b60405160200161108a929190613abc565b6040516020818303038152906040525b915050919050565b6110ac33826114ad565b6110eb576040517f08c379a00000000000000000000000000000000000000000000000000000000081526004016110e290613b52565b60405180910390fd5b6110f481610876565b611133576040517f08c379a000000000000000000000000000000000000000000000000000000000815260040161112a90613bbe565b60405180910390fd5b61113c816119bb565b50565b6000600560008473ffffffffffffffffffffffffffffffffffffffff1673ffffffffffffffffffffffffffffffffffffffff16815260200190815260200160002060008373ffffffffffffffffffffffffffffffffffffffff1673ffffffffffffffffffffffffffffffffffffffff16815260200190815260200160002060009054906101000a900460ff16905092915050565b60003411611216576040517f08c379a000000000000000000000000000000000000000000000000000000000815260040161120d90613c2a565b60405180910390fd5b6000611225833484600061187b565b9050808373ffffffffffffffffffffffffffffffffffffffff163373ffffffffffffffffffffffffffffffffffffffff167fec902a6f14b681810396ce281c81246de9d18cdc8b7555ab0ca8e152679c3e633486604051611287929190613c4a565b60405180910390a4611299600a6119a5565b505050565b60007f80ac58cd000000000000000000000000000000000000000000000000000000007bffffffffffffffffffffffffffffffffffffffffffffffffffffffff1916827bffffffffffffffffffffffffffffffffffffffffffffffffffffffff1916148061136957507f5b5e139f000000000000000000000000000000000000000000000000000000007bffffffffffffffffffffffffffffffffffffffffffffffffffffffff1916827bffffffffffffffffffffffffffffffffffffffffffffffffffffffff1916145b80611379575061137882611f6e565b5b9050919050565b60008073ffffffffffffffffffffffffffffffffffffffff166002600084815260200190815260200160002060009054906101000a900473ffffffffffffffffffffffffffffffffffffffff1673ffffffffffffffffffffffffffffffffffffffff1614159050919050565b600033905090565b816004600083815260200190815260200160002060006101000a81548173ffffffffffffffffffffffffffffffffffffffff021916908373ffffffffffffffffffffffffffffffffffffffff160217905550808273ffffffffffffffffffffffffffffffffffffffff1661146783610c10565b73ffffffffffffffffffffffffffffffffffffffff167f8c5be1e5ebec7d5bd14f71427d1e84f3dd0314c0f7b2291e5b200ac8c7c3b92560405160405180910390a45050565b60006114b882611380565b6114f7576040517f08c379a00000000000000000000000000000000000000000000000000000000081526004016114ee90613ce5565b60405180910390fd5b600061150283610c10565b90508073ffffffffffffffffffffffffffffffffffffffff168473ffffffffffffffffffffffffffffffffffffffff16148061157157508373ffffffffffffffffffffffffffffffffffffffff16611559846106d9565b73ffffffffffffffffffffffffffffffffffffffff16145b806115825750611581818561113f565b5b91505092915050565b8273ffffffffffffffffffffffffffffffffffffffff166115ab82610c10565b73ffffffffffffffffffffffffffffffffffffffff1614611601576040517f08c379a00000000000000000000000000000000000000000000000000000000081526004016115f890613d77565b60405180910390fd5b600073ffffffffffffffffffffffffffffffffffffffff168273ffffffffffffffffffffffffffffffffffffffff161415611671576040517f08c379a000000000000000000000000000000000000000000000000000000000815260040161166890613e09565b60405180910390fd5b61167c838383611fd8565b6116876000826113f4565b6001600360008573ffffffffffffffffffffffffffffffffffffffff1673ffffffffffffffffffffffffffffffffffffffff16815260200190815260200160002060008282546116d79190613e58565b925050819055506001600360008473ffffffffffffffffffffffffffffffffffffffff1673ffffffffffffffffffffffffffffffffffffffff168152602001908152602001600020600082825461172e9190613e8c565b92505081905550816002600083815260200190815260200160002060006101000a81548173ffffffffffffffffffffffffffffffffffffffff021916908373ffffffffffffffffffffffffffffffffffffffff160217905550808273ffffffffffffffffffffffffffffffffffffffff168473ffffffffffffffffffffffffffffffffffffffff167fddf252ad1be2c89b69c2b068fc378daa952ba7f163c4a11628f55a4df523b3ef60405160405180910390a46117ed8383836120ec565b505050565b611875846323b872dd60e01b85858560405160240161181393929190613ee2565b604051602081830303815290604052907bffffffffffffffffffffffffffffffffffffffffffffffffffffffff19166020820180517bffffffffffffffffffffffffffffffffffffffffffffffffffffffff83818316178352505050506120f1565b50505050565b600080611888600a6121b8565b905060405180608001604052808681526020018581526020018473ffffffffffffffffffffffffffffffffffffffff1681526020013373ffffffffffffffffffffffffffffffffffffffff16815250600b6000838152602001908152602001600020600082015181600001556020820151816001015560408201518160020160006101000a81548173ffffffffffffffffffffffffffffffffffffffff021916908373ffffffffffffffffffffffffffffffffffffffff16021790555060608201518160030160006101000a81548173ffffffffffffffffffffffffffffffffffffffff021916908373ffffffffffffffffffffffffffffffffffffffff16021790555090505061199986826121c6565b80915050949350505050565b6001816000016000828254019250508190555050565b600073ffffffffffffffffffffffffffffffffffffffff16600b600083815260200190815260200160002060020160009054906101000a900473ffffffffffffffffffffffffffffffffffffffff1673ffffffffffffffffffffffffffffffffffffffff161415611af1576000803373ffffffffffffffffffffffffffffffffffffffff16600b600085815260200190815260200160002060000154604051611a6390613f4a565b60006040518083038185875af1925050503d8060008114611aa0576040519150601f19603f3d011682016040523d82523d6000602084013e611aa5565b606091505b509150915081611aea576040517f08c379a0000000000000000000000000000000000000000000000000000000008152600401611ae190613fab565b60405180910390fd5b5050611b69565b611b6833600b600084815260200190815260200160002060000154600b600085815260200190815260200160002060020160009054906101000a900473ffffffffffffffffffffffffffffffffffffffff1673ffffffffffffffffffffffffffffffffffffffff166121e49092919063ffffffff16565b5b611b728161226a565b600b600082815260200190815260200160002060008082016000905560018201600090556002820160006101000a81549073ffffffffffffffffffffffffffffffffffffffff02191690556003820160006101000a81549073ffffffffffffffffffffffffffffffffffffffff02191690555050803373ffffffffffffffffffffffffffffffffffffffff167fb5b2485e576421b4d960419b11b72bb902b80c2f594e50a7fd2ea7e75fe0f46160405160405180910390a350565b8173ffffffffffffffffffffffffffffffffffffffff168373ffffffffffffffffffffffffffffffffffffffff161415611c9c576040517f08c379a0000000000000000000000000000000000000000000000000000000008152600401611c9390614017565b60405180910390fd5b80600560008573ffffffffffffffffffffffffffffffffffffffff1673ffffffffffffffffffffffffffffffffffffffff16815260200190815260200160002060008473ffffffffffffffffffffffffffffffffffffffff1673ffffffffffffffffffffffffffffffffffffffff16815260200190815260200160002060006101000a81548160ff0219169083151502179055508173ffffffffffffffffffffffffffffffffffffffff168373ffffffffffffffffffffffffffffffffffffffff167f17307eab39ab6107e8899845ad3d59bd9653f200f220920489ca2b5937696c3183604051611d8d9190612d0d565b60405180910390a3505050565b611da584848461158b565b611db184848484612387565b611df0576040517f08c379a0000000000000000000000000000000000000000000000000000000008152600401611de7906140a9565b60405180910390fd5b50505050565b606060405180602001604052806000815250905090565b60606000821415611e55576040518060400160405280600181526020017f30000000000000000000000000000000000000000000000000000000000000008152509050611f69565b600082905060005b60008214611e87578080611e70906140c9565b915050600a82611e809190614141565b9150611e5d565b60008167ffffffffffffffff811115611ea357611ea261313f565b5b6040519080825280601f01601f191660200182016040528015611ed55781602001600182028036833780820191505090505b5090505b60008514611f6257600182611eee9190613e58565b9150600a85611efd9190614172565b6030611f099190613e8c565b60f81b818381518110611f1f57611f1e613731565b5b60200101907effffffffffffffffffffffffffffffffffffffffffffffffffffffffffffff1916908160001a905350600a85611f5b9190614141565b9450611ed9565b8093505050505b919050565b60007f01ffc9a7000000000000000000000000000000000000000000000000000000007bffffffffffffffffffffffffffffffffffffffffffffffffffffffff1916827bffffffffffffffffffffffffffffffffffffffffffffffffffffffff1916149050919050565b611fe383838361250f565b600073ffffffffffffffffffffffffffffffffffffffff168373ffffffffffffffffffffffffffffffffffffffff1614156120265761202181612514565b612065565b8173ffffffffffffffffffffffffffffffffffffffff168373ffffffffffffffffffffffffffffffffffffffff161461206457612063838261255d565b5b5b600073ffffffffffffffffffffffffffffffffffffffff168273ffffffffffffffffffffffffffffffffffffffff1614156120a8576120a3816126ca565b6120e7565b8273ffffffffffffffffffffffffffffffffffffffff168273ffffffffffffffffffffffffffffffffffffffff16146120e6576120e5828261279b565b5b5b505050565b505050565b6000612153826040518060400160405280602081526020017f5361666545524332303a206c6f772d6c6576656c2063616c6c206661696c65648152508573ffffffffffffffffffffffffffffffffffffffff1661281a9092919063ffffffff16565b90506000815111156121b3578080602001905181019061217391906141b8565b6121b2576040517f08c379a00000000000000000000000000000000000000000000000000000000081526004016121a990614257565b60405180910390fd5b5b505050565b600081600001549050919050565b6121e0828260405180602001604052806000815250612832565b5050565b6122658363a9059cbb60e01b8484604051602401612203929190614277565b604051602081830303815290604052907bffffffffffffffffffffffffffffffffffffffffffffffffffffffff19166020820180517bffffffffffffffffffffffffffffffffffffffffffffffffffffffff83818316178352505050506120f1565b505050565b600061227582610c10565b905061228381600084611fd8565b61228e6000836113f4565b6001600360008373ffffffffffffffffffffffffffffffffffffffff1673ffffffffffffffffffffffffffffffffffffffff16815260200190815260200160002060008282546122de9190613e58565b925050819055506002600083815260200190815260200160002060006101000a81549073ffffffffffffffffffffffffffffffffffffffff021916905581600073ffffffffffffffffffffffffffffffffffffffff168273ffffffffffffffffffffffffffffffffffffffff167fddf252ad1be2c89b69c2b068fc378daa952ba7f163c4a11628f55a4df523b3ef60405160405180910390a4612383816000846120ec565b5050565b60006123a88473ffffffffffffffffffffffffffffffffffffffff1661288d565b15612502578373ffffffffffffffffffffffffffffffffffffffff1663150b7a026123d16113ec565b8786866040518563ffffffff1660e01b81526004016123f394939291906142f5565b6020604051808303816000875af192505050801561242f57506040513d601f19601f8201168201806040525081019061242c9190614356565b60015b6124b2573d806000811461245f576040519150601f19603f3d011682016040523d82523d6000602084013e612464565b606091505b506000815114156124aa576040517f08c379a00000000000000000000000000000000000000000000000000000000081526004016124a1906140a9565b60405180910390fd5b805181602001fd5b63150b7a0260e01b7bffffffffffffffffffffffffffffffffffffffffffffffffffffffff1916817bffffffffffffffffffffffffffffffffffffffffffffffffffffffff191614915050612507565b600190505b949350505050565b505050565b6008805490506009600083815260200190815260200160002081905550600881908060018154018082558091505060019003906000526020600020016000909190919091505550565b6000600161256a84610cc2565b6125749190613e58565b9050600060076000848152602001908152602001600020549050818114612659576000600660008673ffffffffffffffffffffffffffffffffffffffff1673ffffffffffffffffffffffffffffffffffffffff168152602001908152602001600020600084815260200190815260200160002054905080600660008773ffffffffffffffffffffffffffffffffffffffff1673ffffffffffffffffffffffffffffffffffffffff168152602001908152602001600020600084815260200190815260200160002081905550816007600083815260200190815260200160002081905550505b6007600084815260200190815260200160002060009055600660008573ffffffffffffffffffffffffffffffffffffffff1673ffffffffffffffffffffffffffffffffffffffff16815260200190815260200160002060008381526020019081526020016000206000905550505050565b600060016008805490506126de9190613e58565b905060006009600084815260200190815260200160002054905060006008838154811061270e5761270d613731565b5b9060005260206000200154905080600883815481106127305761272f613731565b5b90600052602060002001819055508160096000838152602001908152602001600020819055506009600085815260200190815260200160002060009055600880548061277f5761277e614383565b5b6001900381819060005260206000200160009055905550505050565b60006127a683610cc2565b905081600660008573ffffffffffffffffffffffffffffffffffffffff1673ffffffffffffffffffffffffffffffffffffffff168152602001908152602001600020600083815260200190815260200160002081905550806007600084815260200190815260200160002081905550505050565b606061282984846000856128b0565b90509392505050565b61283c83836129c4565b6128496000848484612387565b612888576040517f08c379a000000000000000000000000000000000000000000000000000000000815260040161287f906140a9565b60405180910390fd5b505050565b6000808273ffffffffffffffffffffffffffffffffffffffff163b119050919050565b6060824710156128f5576040517f08c379a00000000000000000000000000000000000000000000000000000000081526004016128ec90614424565b60405180910390fd5b6128fe8561288d565b61293d576040517f08c379a000000000000000000000000000000000000000000000000000000000815260040161293490614490565b60405180910390fd5b6000808673ffffffffffffffffffffffffffffffffffffffff16858760405161296691906144e1565b60006040518083038185875af1925050503d80600081146129a3576040519150601f19603f3d011682016040523d82523d6000602084013e6129a8565b606091505b50915091506129b8828286612b9e565b92505050949350505050565b600073ffffffffffffffffffffffffffffffffffffffff168273ffffffffffffffffffffffffffffffffffffffff161415612a34576040517f08c379a0000000000000000000000000000000000000000000000000000000008152600401612a2b90614544565b60405180910390fd5b612a3d81611380565b15612a7d576040517f08c379a0000000000000000000000000000000000000000000000000000000008152600401612a74906145b0565b60405180910390fd5b612a8960008383611fd8565b6001600360008473ffffffffffffffffffffffffffffffffffffffff1673ffffffffffffffffffffffffffffffffffffffff1681526020019081526020016000206000828254612ad99190613e8c565b92505081905550816002600083815260200190815260200160002060006101000a81548173ffffffffffffffffffffffffffffffffffffffff021916908373ffffffffffffffffffffffffffffffffffffffff160217905550808273ffffffffffffffffffffffffffffffffffffffff16600073ffffffffffffffffffffffffffffffffffffffff167fddf252ad1be2c89b69c2b068fc378daa952ba7f163c4a11628f55a4df523b3ef60405160405180910390a4612b9a600083836120ec565b5050565b60608315612bae57829050612bfe565b600083511115612bc15782518084602001fd5b816040517f08c379a0000000000000000000000000000000000000000000000000000000008152600401612bf59190612dc1565b60405180910390fd5b9392505050565b60405180608001604052806000815260200160008152602001600073ffffffffffffffffffffffffffffffffffffffff168152602001600073ffffffffffffffffffffffffffffffffffffffff1681525090565b6000604051905090565b600080fd5b600080fd5b60007fffffffff0000000000000000000000000000000000000000000000000000000082169050919050565b612ca281612c6d565b8114612cad57600080fd5b50565b600081359050612cbf81612c99565b92915050565b600060208284031215612cdb57612cda612c63565b5b6000612ce984828501612cb0565b91505092915050565b60008115159050919050565b612d0781612cf2565b82525050565b6000602082019050612d226000830184612cfe565b92915050565b600081519050919050565b600082825260208201905092915050565b60005b83811015612d62578082015181840152602081019050612d47565b83811115612d71576000848401525b50505050565b6000601f19601f8301169050919050565b6000612d9382612d28565b612d9d8185612d33565b9350612dad818560208601612d44565b612db681612d77565b840191505092915050565b60006020820190508181036000830152612ddb8184612d88565b905092915050565b6000819050919050565b612df681612de3565b8114612e0157600080fd5b50565b600081359050612e1381612ded565b92915050565b600060208284031215612e2f57612e2e612c63565b5b6000612e3d84828501612e04565b91505092915050565b600073ffffffffffffffffffffffffffffffffffffffff82169050919050565b6000612e7182612e46565b9050919050565b612e8181612e66565b82525050565b6000602082019050612e9c6000830184612e78565b92915050565b612eab81612e66565b8114612eb657600080fd5b50565b600081359050612ec881612ea2565b92915050565b60008060408385031215612ee557612ee4612c63565b5b6000612ef385828601612eb9565b9250506020612f0485828601612e04565b9150509250929050565b612f1781612de3565b82525050565b6000602082019050612f326000830184612f0e565b92915050565b600080600060608486031215612f5157612f50612c63565b5b6000612f5f86828701612eb9565b9350506020612f7086828701612eb9565b9250506040612f8186828701612e04565b9150509250925092565b60008060008060808587031215612fa557612fa4612c63565b5b6000612fb387828801612eb9565b9450506020612fc487828801612eb9565b9350506040612fd587828801612e04565b9250506060612fe687828801612e04565b91505092959194509250565b60006020828403121561300857613007612c63565b5b600061301684828501612eb9565b91505092915050565b61302881612de3565b82525050565b61303781612e66565b82525050565b608082016000820151613053600085018261301f565b506020820151613066602085018261301f565b506040820151613079604085018261302e565b50606082015161308c606085018261302e565b50505050565b600060c0820190506130a76000830186612e78565b6130b4602083018561303d565b6130c160a0830184612f0e565b949350505050565b6130d281612cf2565b81146130dd57600080fd5b50565b6000813590506130ef816130c9565b92915050565b6000806040838503121561310c5761310b612c63565b5b600061311a85828601612eb9565b925050602061312b858286016130e0565b9150509250929050565b600080fd5b600080fd5b7f4e487b7100000000000000000000000000000000000000000000000000000000600052604160045260246000fd5b61317782612d77565b810181811067ffffffffffffffff821117156131965761319561313f565b5b80604052505050565b60006131a9612c59565b90506131b5828261316e565b919050565b600067ffffffffffffffff8211156131d5576131d461313f565b5b6131de82612d77565b9050602081019050919050565b82818337600083830152505050565b600061320d613208846131ba565b61319f565b9050828152602081018484840111156132295761322861313a565b5b6132348482856131eb565b509392505050565b600082601f83011261325157613250613135565b5b81356132618482602086016131fa565b91505092915050565b6000806000806080858703121561328457613283612c63565b5b600061329287828801612eb9565b94505060206132a387828801612eb9565b93505060406132b487828801612e04565b925050606085013567ffffffffffffffff8111156132d5576132d4612c68565b5b6132e18782880161323c565b91505092959194509250565b6000806040838503121561330457613303612c63565b5b600061331285828601612eb9565b925050602061332385828601612eb9565b9150509250929050565b7f4e487b7100000000000000000000000000000000000000000000000000000000600052602260045260246000fd5b6000600282049050600182168061337457607f821691505b602082108114156133885761338761332d565b5b50919050565b7f4552433732313a20617070726f76656420717565727920666f72206e6f6e657860008201527f697374656e7420746f6b656e0000000000000000000000000000000000000000602082015250565b60006133ea602c83612d33565b91506133f58261338e565b604082019050919050565b60006020820190508181036000830152613419816133dd565b9050919050565b7f4552433732313a20617070726f76616c20746f2063757272656e74206f776e6560008201527f7200000000000000000000000000000000000000000000000000000000000000602082015250565b600061347c602183612d33565b915061348782613420565b604082019050919050565b600060208201905081810360008301526134ab8161346f565b9050919050565b7f4552433732313a20617070726f76652063616c6c6572206973206e6f74206f7760008201527f6e6572206e6f7220617070726f76656420666f7220616c6c0000000000000000602082015250565b600061350e603883612d33565b9150613519826134b2565b604082019050919050565b6000602082019050818103600083015261353d81613501565b9050919050565b7f4552433732313a207472616e736665722063616c6c6572206973206e6f74206f60008201527f776e6572206e6f7220617070726f766564000000000000000000000000000000602082015250565b60006135a0603183612d33565b91506135ab82613544565b604082019050919050565b600060208201905081810360008301526135cf81613593565b9050919050565b7f455243373231456e756d657261626c653a206f776e657220696e646578206f7560008201527f74206f6620626f756e6473000000000000000000000000000000000000000000602082015250565b6000613632602b83612d33565b915061363d826135d6565b604082019050919050565b6000602082019050818103600083015261366181613625565b9050919050565b600060608201905061367d6000830186612e78565b61368a6020830185612f0e565b6136976040830184612f0e565b949350505050565b7f455243373231456e756d657261626c653a20676c6f62616c20696e646578206f60008201527f7574206f6620626f756e64730000000000000000000000000000000000000000602082015250565b60006136fb602c83612d33565b91506137068261369f565b604082019050919050565b6000602082019050818103600083015261372a816136ee565b9050919050565b7f4e487b7100000000000000000000000000000000000000000000000000000000600052603260045260246000fd5b7f596f7520617265206e6f74207468652063726561746f72206f6620746869732060008201527f746f6b652e000000000000000000000000000000000000000000000000000000602082015250565b60006137bc602583612d33565b91506137c782613760565b604082019050919050565b600060208201905081810360008301526137eb816137af565b9050919050565b7f5468697320746f6b6520686173206e6f7420657870697265642e000000000000600082015250565b6000613828601a83612d33565b9150613833826137f2565b602082019050919050565b600060208201905081810360008301526138578161381b565b9050919050565b7f4552433732313a206f776e657220717565727920666f72206e6f6e657869737460008201527f656e7420746f6b656e0000000000000000000000000000000000000000000000602082015250565b60006138ba602983612d33565b91506138c58261385e565b604082019050919050565b600060208201905081810360008301526138e9816138ad565b9050919050565b7f4552433732313a2062616c616e636520717565727920666f7220746865207a6560008201527f726f206164647265737300000000000000000000000000000000000000000000602082015250565b600061394c602a83612d33565b9150613957826138f0565b604082019050919050565b6000602082019050818103600083015261397b8161393f565b9050919050565b7f5468697320746f6b6520646f6573206e6f742065786973742e00000000000000600082015250565b60006139b8601983612d33565b91506139c382613982565b602082019050919050565b600060208201905081810360008301526139e7816139ab565b9050919050565b7f4552433732314d657461646174613a2055524920717565727920666f72206e6f60008201527f6e6578697374656e7420746f6b656e0000000000000000000000000000000000602082015250565b6000613a4a602f83612d33565b9150613a55826139ee565b604082019050919050565b60006020820190508181036000830152613a7981613a3d565b9050919050565b600081905092915050565b6000613a9682612d28565b613aa08185613a80565b9350613ab0818560208601612d44565b80840191505092915050565b6000613ac88285613a8b565b9150613ad48284613a8b565b91508190509392505050565b7f596f7520646f6e2774206861766520746865207065726d697373696f6e73207460008201527f6f206d616e616765207468697320746f6b652e00000000000000000000000000602082015250565b6000613b3c603383612d33565b9150613b4782613ae0565b604082019050919050565b60006020820190508181036000830152613b6b81613b2f565b9050919050565b7f5468697320746f6b6520657870697265642e0000000000000000000000000000600082015250565b6000613ba8601283612d33565b9150613bb382613b72565b602082019050919050565b60006020820190508181036000830152613bd781613b9b565b9050919050565b7f4e6f2065746865722073656e7400000000000000000000000000000000000000600082015250565b6000613c14600d83612d33565b9150613c1f82613bde565b602082019050919050565b60006020820190508181036000830152613c4381613c07565b9050919050565b6000604082019050613c5f6000830185612f0e565b613c6c6020830184612f0e565b9392505050565b7f4552433732313a206f70657261746f7220717565727920666f72206e6f6e657860008201527f697374656e7420746f6b656e0000000000000000000000000000000000000000602082015250565b6000613ccf602c83612d33565b9150613cda82613c73565b604082019050919050565b60006020820190508181036000830152613cfe81613cc2565b9050919050565b7f4552433732313a207472616e736665722066726f6d20696e636f72726563742060008201527f6f776e6572000000000000000000000000000000000000000000000000000000602082015250565b6000613d61602583612d33565b9150613d6c82613d05565b604082019050919050565b60006020820190508181036000830152613d9081613d54565b9050919050565b7f4552433732313a207472616e7366657220746f20746865207a65726f2061646460008201527f7265737300000000000000000000000000000000000000000000000000000000602082015250565b6000613df3602483612d33565b9150613dfe82613d97565b604082019050919050565b60006020820190508181036000830152613e2281613de6565b9050919050565b7f4e487b7100000000000000000000000000000000000000000000000000000000600052601160045260246000fd5b6000613e6382612de3565b9150613e6e83612de3565b925082821015613e8157613e80613e29565b5b828203905092915050565b6000613e9782612de3565b9150613ea283612de3565b9250827fffffffffffffffffffffffffffffffffffffffffffffffffffffffffffffffff03821115613ed757613ed6613e29565b5b828201905092915050565b6000606082019050613ef76000830186612e78565b613f046020830185612e78565b613f116040830184612f0e565b949350505050565b600081905092915050565b50565b6000613f34600083613f19565b9150613f3f82613f24565b600082019050919050565b6000613f5582613f27565b9150819050919050565b7f4661696c656420746f2073656e642065746865722e0000000000000000000000600082015250565b6000613f95601583612d33565b9150613fa082613f5f565b602082019050919050565b60006020820190508181036000830152613fc481613f88565b9050919050565b7f4552433732313a20617070726f766520746f2063616c6c657200000000000000600082015250565b6000614001601983612d33565b915061400c82613fcb565b602082019050919050565b6000602082019050818103600083015261403081613ff4565b9050919050565b7f4552433732313a207472616e7366657220746f206e6f6e20455243373231526560008201527f63656976657220696d706c656d656e7465720000000000000000000000000000602082015250565b6000614093603283612d33565b915061409e82614037565b604082019050919050565b600060208201905081810360008301526140c281614086565b9050919050565b60006140d482612de3565b91507fffffffffffffffffffffffffffffffffffffffffffffffffffffffffffffffff82141561410757614106613e29565b5b600182019050919050565b7f4e487b7100000000000000000000000000000000000000000000000000000000600052601260045260246000fd5b600061414c82612de3565b915061415783612de3565b92508261416757614166614112565b5b828204905092915050565b600061417d82612de3565b915061418883612de3565b92508261419857614197614112565b5b828206905092915050565b6000815190506141b2816130c9565b92915050565b6000602082840312156141ce576141cd612c63565b5b60006141dc848285016141a3565b91505092915050565b7f5361666545524332303a204552433230206f7065726174696f6e20646964206e60008201527f6f74207375636365656400000000000000000000000000000000000000000000602082015250565b6000614241602a83612d33565b915061424c826141e5565b604082019050919050565b6000602082019050818103600083015261427081614234565b9050919050565b600060408201905061428c6000830185612e78565b6142996020830184612f0e565b9392505050565b600081519050919050565b600082825260208201905092915050565b60006142c7826142a0565b6142d181856142ab565b93506142e1818560208601612d44565b6142ea81612d77565b840191505092915050565b600060808201905061430a6000830187612e78565b6143176020830186612e78565b6143246040830185612f0e565b818103606083015261433681846142bc565b905095945050505050565b60008151905061435081612c99565b92915050565b60006020828403121561436c5761436b612c63565b5b600061437a84828501614341565b91505092915050565b7f4e487b7100000000000000000000000000000000000000000000000000000000600052603160045260246000fd5b7f416464726573733a20696e73756666696369656e742062616c616e636520666f60008201527f722063616c6c0000000000000000000000000000000000000000000000000000602082015250565b600061440e602683612d33565b9150614419826143b2565b604082019050919050565b6000602082019050818103600083015261443d81614401565b9050919050565b7f416464726573733a2063616c6c20746f206e6f6e2d636f6e7472616374000000600082015250565b600061447a601d83612d33565b915061448582614444565b602082019050919050565b600060208201905081810360008301526144a98161446d565b9050919050565b60006144bb826142a0565b6144c58185613f19565b93506144d5818560208601612d44565b80840191505092915050565b60006144ed82846144b0565b915081905092915050565b7f4552433732313a206d696e7420746f20746865207a65726f2061646472657373600082015250565b600061452e602083612d33565b9150614539826144f8565b602082019050919050565b6000602082019050818103600083015261455d81614521565b9050919050565b7f4552433732313a20746f6b656e20616c7265616479206d696e74656400000000600082015250565b600061459a601c83612d33565b91506145a582614564565b602082019050919050565b600060208201905081810360008301526145c98161458d565b905091905056fea2646970667358221220a152405163834a43cda576e4523e75f32fe10fbb31600c70ad45e9600a44a7a564736f6c634300080c0033",
  "linkReferences": {},
  "deployedLinkReferences": {}
}